{
  "_format": "hh-sol-artifact-1",
  "contractName": "CommunityRewards",
  "sourceName": "contracts/CommunityRewards.sol",
  "abi": [
    {
      "inputs": [
        {
          "internalType": "address",
          "name": "_nftContract",
          "type": "address"
        }
      ],
      "stateMutability": "nonpayable",
      "type": "constructor"
    },
    {
      "anonymous": false,
      "inputs": [
        {
          "indexed": true,
          "internalType": "uint256",
          "name": "tokenId",
          "type": "uint256"
        },
        {
          "indexed": false,
          "internalType": "uint256",
          "name": "amount",
          "type": "uint256"
        }
      ],
      "name": "CommunityRewardDistributed",
      "type": "event"
    },
    {
      "anonymous": false,
      "inputs": [
        {
          "indexed": true,
          "internalType": "address",
          "name": "previousOwner",
          "type": "address"
        },
        {
          "indexed": true,
          "internalType": "address",
          "name": "newOwner",
          "type": "address"
        }
      ],
      "name": "OwnershipTransferred",
      "type": "event"
    },
    {
      "anonymous": false,
      "inputs": [
        {
          "indexed": true,
          "internalType": "address",
          "name": "user",
          "type": "address"
        },
        {
          "indexed": false,
          "internalType": "uint256",
          "name": "points",
          "type": "uint256"
        },
        {
          "indexed": false,
          "internalType": "string",
          "name": "action",
          "type": "string"
        }
      ],
      "name": "PointsEarned",
      "type": "event"
    },
    {
      "anonymous": false,
      "inputs": [
        {
          "indexed": true,
          "internalType": "address",
          "name": "user",
          "type": "address"
        },
        {
          "indexed": false,
          "internalType": "uint256",
          "name": "amount",
          "type": "uint256"
        }
      ],
      "name": "RewardClaimed",
      "type": "event"
    },
    {
      "anonymous": false,
      "inputs": [
        {
          "indexed": true,
          "internalType": "address",
          "name": "user",
          "type": "address"
        },
        {
          "indexed": false,
          "internalType": "enum CommunityRewards.RewardTier",
          "name": "newTier",
          "type": "uint8"
        }
      ],
      "name": "TierUpgraded",
      "type": "event"
    },
    {
      "inputs": [],
      "name": "POINTS_PER_AUCTION_WIN",
      "outputs": [
        {
          "internalType": "uint256",
          "name": "",
          "type": "uint256"
        }
      ],
      "stateMutability": "view",
      "type": "function"
    },
    {
      "inputs": [],
      "name": "POINTS_PER_LIKE",
      "outputs": [
        {
          "internalType": "uint256",
          "name": "",
          "type": "uint256"
        }
      ],
      "stateMutability": "view",
      "type": "function"
    },
    {
      "inputs": [],
      "name": "POINTS_PER_PURCHASE",
      "outputs": [
        {
          "internalType": "uint256",
          "name": "",
          "type": "uint256"
        }
      ],
      "stateMutability": "view",
      "type": "function"
    },
    {
      "inputs": [],
      "name": "POINTS_PER_REFERRAL",
      "outputs": [
        {
          "internalType": "uint256",
          "name": "",
          "type": "uint256"
        }
      ],
      "stateMutability": "view",
      "type": "function"
    },
    {
      "inputs": [
        {
          "internalType": "uint256[]",
          "name": "tokenIds",
          "type": "uint256[]"
        },
        {
          "internalType": "uint256[]",
          "name": "amounts",
          "type": "uint256[]"
        }
      ],
      "name": "distributeRewards",
      "outputs": [],
      "stateMutability": "payable",
      "type": "function"
    },
    {
      "inputs": [],
      "name": "emergencyWithdraw",
      "outputs": [],
      "stateMutability": "nonpayable",
      "type": "function"
    },
    {
      "inputs": [
        {
          "internalType": "address",
          "name": "user",
          "type": "address"
        }
      ],
      "name": "getUserDiscount",
      "outputs": [
        {
          "internalType": "uint256",
          "name": "",
          "type": "uint256"
        }
      ],
      "stateMutability": "view",
      "type": "function"
    },
    {
      "inputs": [
        {
          "internalType": "address",
          "name": "user",
          "type": "address"
        },
        {
          "internalType": "uint256",
          "name": "tokenId",
          "type": "uint256"
        }
      ],
      "name": "getUserLikeTimestamp",
      "outputs": [
        {
          "internalType": "uint256",
          "name": "",
          "type": "uint256"
        }
      ],
      "stateMutability": "view",
      "type": "function"
    },
    {
      "inputs": [
        {
          "internalType": "address",
          "name": "user",
          "type": "address"
        }
      ],
      "name": "getUserProfile",
      "outputs": [
        {
          "components": [
            {
              "internalType": "uint256",
              "name": "totalPoints",
              "type": "uint256"
            },
            {
              "internalType": "uint256",
              "name": "likesGiven",
              "type": "uint256"
            },
            {
              "internalType": "uint256",
              "name": "nftsOwned",
              "type": "uint256"
            },
            {
              "internalType": "uint256",
              "name": "totalContributed",
              "type": "uint256"
            },
            {
              "internalType": "uint256",
              "name": "joinTimestamp",
              "type": "uint256"
            },
            {
              "internalType": "enum CommunityRewards.RewardTier",
              "name": "currentTier",
              "type": "uint8"
            }
          ],
          "internalType": "struct CommunityRewards.UserProfile",
          "name": "",
          "type": "tuple"
        }
      ],
      "stateMutability": "view",
      "type": "function"
    },
    {
      "inputs": [
        {
          "internalType": "address",
          "name": "user",
          "type": "address"
        }
      ],
      "name": "getUserTier",
      "outputs": [
        {
          "internalType": "enum CommunityRewards.RewardTier",
          "name": "",
          "type": "uint8"
        }
      ],
      "stateMutability": "view",
      "type": "function"
    },
    {
      "inputs": [
        {
          "internalType": "address",
          "name": "user",
          "type": "address"
        },
        {
          "internalType": "uint256",
          "name": "tokenId",
          "type": "uint256"
        }
      ],
      "name": "hasUserLikedToken",
      "outputs": [
        {
          "internalType": "bool",
          "name": "",
          "type": "bool"
        }
      ],
      "stateMutability": "view",
      "type": "function"
    },
    {
      "inputs": [],
      "name": "nftContract",
      "outputs": [
        {
          "internalType": "contract CulturalNFT",
          "name": "",
          "type": "address"
        }
      ],
      "stateMutability": "view",
      "type": "function"
    },
    {
      "inputs": [],
      "name": "owner",
      "outputs": [
        {
          "internalType": "address",
          "name": "",
          "type": "address"
        }
      ],
      "stateMutability": "view",
      "type": "function"
    },
    {
      "inputs": [
        {
          "internalType": "address",
          "name": "user",
          "type": "address"
        },
        {
          "internalType": "uint256",
          "name": "",
          "type": "uint256"
        },
        {
          "internalType": "uint256",
          "name": "",
          "type": "uint256"
        }
      ],
      "name": "recordAuctionWin",
      "outputs": [],
      "stateMutability": "nonpayable",
      "type": "function"
    },
    {
      "inputs": [
        {
          "internalType": "address",
          "name": "user",
          "type": "address"
        },
        {
          "internalType": "uint256",
          "name": "tokenId",
          "type": "uint256"
        }
      ],
      "name": "recordLike",
      "outputs": [],
      "stateMutability": "nonpayable",
      "type": "function"
    },
    {
      "inputs": [
        {
          "internalType": "address",
          "name": "user",
          "type": "address"
        },
        {
          "internalType": "uint256",
          "name": "",
          "type": "uint256"
        },
        {
          "internalType": "uint256",
          "name": "",
          "type": "uint256"
        }
      ],
      "name": "recordPurchase",
      "outputs": [],
      "stateMutability": "nonpayable",
      "type": "function"
    },
    {
      "inputs": [
        {
          "internalType": "address",
          "name": "referrer",
          "type": "address"
        },
        {
          "internalType": "address",
          "name": "referred",
          "type": "address"
        }
      ],
      "name": "recordReferral",
      "outputs": [],
      "stateMutability": "nonpayable",
      "type": "function"
    },
    {
      "inputs": [],
      "name": "renounceOwnership",
      "outputs": [],
      "stateMutability": "nonpayable",
      "type": "function"
    },
    {
      "inputs": [
        {
          "internalType": "uint256",
          "name": "",
          "type": "uint256"
        }
      ],
      "name": "rewardDistributions",
      "outputs": [
        {
          "internalType": "uint256",
          "name": "tokenId",
          "type": "uint256"
        },
        {
          "internalType": "uint256",
          "name": "totalAmount",
          "type": "uint256"
        },
        {
          "internalType": "uint256",
          "name": "distributedAmount",
          "type": "uint256"
        },
        {
          "internalType": "uint256",
          "name": "timestamp",
          "type": "uint256"
        },
        {
          "internalType": "bool",
          "name": "isActive",
          "type": "bool"
        }
      ],
      "stateMutability": "view",
      "type": "function"
    },
    {
      "inputs": [
        {
          "internalType": "enum CommunityRewards.RewardTier",
          "name": "",
          "type": "uint8"
        }
      ],
      "name": "tierDiscounts",
      "outputs": [
        {
          "internalType": "uint256",
          "name": "",
          "type": "uint256"
        }
      ],
      "stateMutability": "view",
      "type": "function"
    },
    {
      "inputs": [
        {
          "internalType": "enum CommunityRewards.RewardTier",
          "name": "",
          "type": "uint8"
        }
      ],
      "name": "tierRequirements",
      "outputs": [
        {
          "internalType": "uint256",
          "name": "",
          "type": "uint256"
        }
      ],
      "stateMutability": "view",
      "type": "function"
    },
    {
      "inputs": [
        {
          "internalType": "address",
          "name": "newOwner",
          "type": "address"
        }
      ],
      "name": "transferOwnership",
      "outputs": [],
      "stateMutability": "nonpayable",
      "type": "function"
    },
    {
      "inputs": [
        {
          "internalType": "enum CommunityRewards.RewardTier",
          "name": "tier",
          "type": "uint8"
        },
        {
          "internalType": "uint256",
          "name": "discount",
          "type": "uint256"
        }
      ],
      "name": "updateTierDiscount",
      "outputs": [],
      "stateMutability": "nonpayable",
      "type": "function"
    },
    {
      "inputs": [
        {
          "internalType": "enum CommunityRewards.RewardTier",
          "name": "tier",
          "type": "uint8"
        },
        {
          "internalType": "uint256",
          "name": "points",
          "type": "uint256"
        }
      ],
      "name": "updateTierRequirement",
      "outputs": [],
      "stateMutability": "nonpayable",
      "type": "function"
    },
    {
      "inputs": [
        {
          "internalType": "address",
          "name": "",
          "type": "address"
        },
        {
          "internalType": "uint256",
          "name": "",
          "type": "uint256"
        }
      ],
      "name": "userLikeHistory",
      "outputs": [
        {
          "internalType": "uint256",
          "name": "",
          "type": "uint256"
        }
      ],
      "stateMutability": "view",
      "type": "function"
    },
    {
      "inputs": [
        {
          "internalType": "address",
          "name": "",
          "type": "address"
        }
      ],
      "name": "userProfiles",
      "outputs": [
        {
          "internalType": "uint256",
          "name": "totalPoints",
          "type": "uint256"
        },
        {
          "internalType": "uint256",
          "name": "likesGiven",
          "type": "uint256"
        },
        {
          "internalType": "uint256",
          "name": "nftsOwned",
          "type": "uint256"
        },
        {
          "internalType": "uint256",
          "name": "totalContributed",
          "type": "uint256"
        },
        {
          "internalType": "uint256",
          "name": "joinTimestamp",
          "type": "uint256"
        },
        {
          "internalType": "enum CommunityRewards.RewardTier",
          "name": "currentTier",
          "type": "uint8"
        }
      ],
      "stateMutability": "view",
      "type": "function"
    },
    {
      "stateMutability": "payable",
      "type": "receive"
    }
  ],
  "bytecode": "0x608060405234801561001057600080fd5b50604051611abf380380611abf83398101604081905261002f916101e2565b61003833610192565b60018055600880546001600160a01b0319166001600160a01b03929092169190911790556103e87f05b8ccbb9d4d8fb16ea74ce3c29a41f1b461fbdaff4714a0d9a8eb05499746bc8190556113887f1471eb6eb2c5e789fc3de43f8ce62938c7d1836ec861730447e2ada8fd81017b55613a987f89832631fb3c3307a103ba2c84ab569c64d6182a18893dcd163f0f1c2090733a556161a87fa9bc9a3a348c357ba16b37005d7e6b3236198c0e939f4af8c5f19b8deeb8ebc05560066020526101f47f54cdd369e4e8a8515e52ca72ec816c2101831ad1f18bf44102ed171459c9b4f8557f3e5fec24aa4dc4e5aee2e025e51e1392c72a2500577559fae9665c6d52bd6a31556105dc7f8819ef417987f8ae7a81f42cdfb18815282fe989326fbff903d13cf0e03ace295560036000526107d07f75f96ab15d697e93042dc45b5c896c4b27e89bb6eaf39475c5c371cb2513f7d255610212565b600080546001600160a01b038381166001600160a01b0319831681178455604051919092169283917f8be0079c531659141344cd1fd0a4f28419497f9722a3daafe3b4186f6b6457e09190a35050565b6000602082840312156101f457600080fd5b81516001600160a01b038116811461020b57600080fd5b9392505050565b61189e806102216000396000f3fe6080604052600436106101855760003560e01c80639e55b5e0116100d1578063cc9a6a601161008a578063db2e21bc11610064578063db2e21bc14610553578063e4d2620e14610568578063f0641fbc14610595578063f2fde38b146105a857600080fd5b8063cc9a6a60146104db578063d299e3b81461051e578063d56d229d1461053357600080fd5b80639e55b5e0146103b4578063aacca9641461042c578063b1ed7e8d1461044c578063b6e2220a14610461578063c68cc3b61461048e578063c9c33f03146104bb57600080fd5b8063560203221161013e5780637a7bb21a116101185780637a7bb21a1461031f57806384fb3a9a146103355780638da5cb5b14610355578063987ee1561461038757600080fd5b806356020322146102b257806362a31a94146102d2578063715018a61461030a57600080fd5b806303775c20146101915780630c7f7b6b146101c6578063211f7ba1146101e85780632512dbfc14610208578063318298be14610228578063332d56d71461024b57600080fd5b3661018c57005b600080fd5b34801561019d57600080fd5b506101b16101ac36600461152b565b6105c8565b60405190151581526020015b60405180910390f35b3480156101d257600080fd5b506101e66101e1366004611557565b6105f5565b005b3480156101f457600080fd5b506101e661020336600461152b565b610747565b34801561021457600080fd5b506101e66102233660046115a4565b6108ea565b34801561023457600080fd5b5061023d600a81565b6040519081526020016101bd565b34801561025757600080fd5b506102a06102663660046115c0565b6002602081905260009182526040909120805460018201549282015460038301546004840154600590940154929493919290919060ff1686565b6040516101bd9695949392919061161c565b3480156102be57600080fd5b506101e66102cd366004611657565b61092f565b3480156102de57600080fd5b5061023d6102ed36600461152b565b600360209081526000928352604080842090915290825290205481565b34801561031657600080fd5b506101e6610a3f565b34801561032b57600080fd5b5061023d6101f481565b34801561034157600080fd5b5061023d6103503660046115c0565b610a53565b34801561036157600080fd5b506000546001600160a01b03165b6040516001600160a01b0390911681526020016101bd565b34801561039357600080fd5b506103a76103a23660046115c0565b610a9f565b6040516101bd919061168c565b3480156103c057600080fd5b506104026103cf3660046116d9565b60046020819052600091825260409091208054600182015460028301546003840154939094015491939092909160ff1685565b6040805195865260208601949094529284019190915260608301521515608082015260a0016101bd565b34801561043857600080fd5b506101e66104473660046115a4565b610b6a565b34801561045857600080fd5b5061023d606481565b34801561046d57600080fd5b5061023d61047c3660046116f2565b60066020526000908152604090205481565b34801561049a57600080fd5b5061023d6104a93660046116f2565b60056020526000908152604090205481565b3480156104c757600080fd5b506101e66104d6366004611657565b610bdb565b3480156104e757600080fd5b5061023d6104f636600461152b565b6001600160a01b03919091166000908152600360209081526040808320938352929052205490565b34801561052a57600080fd5b5061023d60c881565b34801561053f57600080fd5b5060085461036f906001600160a01b031681565b34801561055f57600080fd5b506101e6610ce8565b34801561057457600080fd5b506105886105833660046115c0565b610dd0565b6040516101bd919061170d565b6101e66105a3366004611767565b610ede565b3480156105b457600080fd5b506101e66105c33660046115c0565b6112dd565b6001600160a01b038216600090815260036020908152604080832084845290915290205415155b92915050565b6000546001600160a01b0316331461064a5760405162461bcd60e51b815260206004820152601360248201527213db9b1e481bdddb995c8818d85b8818d85b1b606a1b60448201526064015b60405180910390fd5b6001600160a01b0381166000908152600260205260409020600401546106b25760405162461bcd60e51b815260206004820152601860248201527f52656665727265642075736572206e6f742061637469766500000000000000006044820152606401610641565b6001600160a01b0382166000908152600260205260408120805490916101f4918391906106e09084906117e9565b909155506106ef905083611356565b826001600160a01b03166000805160206118498339815191526101f460405161073a918152604060208201819052600890820152671c9959995c9c985b60c21b606082015260800190565b60405180910390a2505050565b6008546001600160a01b031633146107a15760405162461bcd60e51b815260206004820152601a60248201527f4f6e6c79204e465420636f6e74726163742063616e2063616c6c0000000000006044820152606401610641565b6001600160a01b0382166000908152600360209081526040808320848452909152902054156108055760405162461bcd60e51b815260206004820152601060248201526f105b1c9958591e481c9958dbdc99195960821b6044820152606401610641565b6001600160a01b03821660008181526003602090815260408083208584528252808320429055928252600290529081206004810154909103610848574260048201555b600a81600001600082825461085d91906117e9565b9091555050600181018054906000610874836117fc565b9190505550670de0b6b3a764000081600301600082825461089591906117e9565b909155506108a4905083611356565b826001600160a01b0316600080516020611849833981519152600a60405161073a918152604060208201819052600490820152636c696b6560e01b606082015260800190565b6108f2611426565b8060056000846003811115610909576109096115e4565b600381111561091a5761091a6115e4565b81526020810191909152604001600020555050565b6000546001600160a01b0316331461097f5760405162461bcd60e51b815260206004820152601360248201527213db9b1e481bdddb995c8818d85b8818d85b1b606a1b6044820152606401610641565b6001600160a01b038316600090815260026020526040812060048101549091036109aa574260048201555b60c88160000160008282546109bf91906117e9565b90915550506002810180549060006109d6836117fc565b91905055506109e484611356565b836001600160a01b031660008051602061184983398151915260c8604051610a31918152604060208201819052600b908201526a30bab1ba34b7b72fbbb4b760a91b606082015260800190565b60405180910390a250505050565b610a47611426565b610a516000611480565b565b600080610a5f83610dd0565b905060066000826003811115610a7757610a776115e4565b6003811115610a8857610a886115e4565b815260200190815260200160002054915050919050565b610aa76114d0565b6001600160a01b0382166000908152600260208181526040808420815160c081018352815481526001820154938101939093529283015490820152600380830154606083015260048301546080830152600583015491929160a084019160ff90911690811115610b1957610b196115e4565b6003811115610b2a57610b2a6115e4565b9052509050610b3883610dd0565b8160a001906003811115610b4e57610b4e6115e4565b90816003811115610b6157610b616115e4565b90525092915050565b610b72611426565b6109c4811115610bc45760405162461bcd60e51b815260206004820152601a60248201527f446973636f756e742063616e6e6f7420657863656564203235250000000000006044820152606401610641565b8060066000846003811115610909576109096115e4565b6008546001600160a01b0316331480610bfe57506000546001600160a01b031633145b610c395760405162461bcd60e51b815260206004820152600c60248201526b155b985d5d1a1bdc9a5e995960a21b6044820152606401610641565b6001600160a01b03831660009081526002602052604081206004810154909103610c64574260048201555b6064816000016000828254610c7991906117e9565b9091555050600281018054906000610c90836117fc565b9190505550610c9e84611356565b836001600160a01b03166000805160206118498339815191526064604051610a3191815260406020820181905260089082015267707572636861736560c01b606082015260800190565b610cf0611426565b4780610d355760405162461bcd60e51b81526020600482015260146024820152734e6f2066756e647320746f20776974686472617760601b6044820152606401610641565b600080546040516001600160a01b039091169083908381818185875af1925050503d8060008114610d82576040519150601f19603f3d011682016040523d82523d6000602084013e610d87565b606091505b5050905080610dcc5760405162461bcd60e51b815260206004820152601160248201527015da5d1a191c985dd85b0819985a5b1959607a1b6044820152606401610641565b5050565b6001600160a01b03811660009081526002602090815260408220546003835260059091527fa9bc9a3a348c357ba16b37005d7e6b3236198c0e939f4af8c5f19b8deeb8ebc0548110610e255750600392915050565b600260005260056020527f89832631fb3c3307a103ba2c84ab569c64d6182a18893dcd163f0f1c2090733a548110610e605750600292915050565b600160005260056020527f1471eb6eb2c5e789fc3de43f8ce62938c7d1836ec861730447e2ada8fd81017b548110610e9b5750600192915050565b6000805260056020527f05b8ccbb9d4d8fb16ea74ce3c29a41f1b461fbdaff4714a0d9a8eb05499746bc548110610ed55750600092915050565b50600092915050565b610ee6611426565b828114610f2e5760405162461bcd60e51b8152602060048201526016602482015275082e4e4c2f2e640d8cadccee8d040dad2e6dac2e8c6d60531b6044820152606401610641565b60003411610f7e5760405162461bcd60e51b815260206004820152601860248201527f4e6f207265776172647320746f206469737472696275746500000000000000006044820152606401610641565b6000805b82811015610fc257838382818110610f9c57610f9c611815565b9050602002013582610fae91906117e9565b915080610fba816117fc565b915050610f82565b50803410156110135760405162461bcd60e51b815260206004820152601a60248201527f496e73756666696369656e742072657761726420616d6f756e740000000000006044820152606401610641565b60005b848110156112d557600780546000918261102f836117fc565b9190505590506040518060a0016040528088888581811061105257611052611815565b90506020020135815260200186868581811061107057611070611815565b602090810292909201358352506000828201819052426040808501919091526001606094850181905286835260048085528284208751815594870151918501919091559085015160028401559284015160038301556080909301519101805460ff19169115159190911790556008546001600160a01b0316636352211e8989868181106110ff576110ff611815565b905060200201356040518263ffffffff1660e01b815260040161112491815260200190565b602060405180830381865afa158015611141573d6000803e3d6000fd5b505050506040513d601f19601f82011682018060405250810190611165919061182b565b90506000816001600160a01b031687878681811061118557611185611815565b9050602002013560405160006040518083038185875af1925050503d80600081146111cc576040519150601f19603f3d011682016040523d82523d6000602084013e6111d1565b606091505b50509050806112225760405162461bcd60e51b815260206004820152601a60248201527f52657761726420646973747269627574696f6e206661696c65640000000000006044820152606401610641565b86868581811061123457611234611815565b90506020020135600460008581526020019081526020016000206002018190555088888581811061126757611267611815565b905060200201357f07715f67e3d4387e800c27824d003f23e42ece9a36be45dbbe37dee6c0ce11ba8888878181106112a1576112a1611815565b905060200201356040516112b791815260200190565b60405180910390a250505080806112cd906117fc565b915050611016565b505050505050565b6112e5611426565b6001600160a01b03811661134a5760405162461bcd60e51b815260206004820152602660248201527f4f776e61626c653a206e6577206f776e657220697320746865207a65726f206160448201526564647265737360d01b6064820152608401610641565b61135381611480565b50565b6001600160a01b03811660009081526002602052604081206005015460ff169061137f83610dd0565b9050816003811115611393576113936115e4565b8160038111156113a5576113a56115e4565b1115611421576001600160a01b0383166000908152600260205260409020600501805482919060ff191660018360038111156113e3576113e36115e4565b0217905550826001600160a01b03167f51de07a4aba9cb8a2ff4c3c8735d01b775003c93dd3ddf5f7a2513c87dde55df8260405161073a919061170d565b505050565b6000546001600160a01b03163314610a515760405162461bcd60e51b815260206004820181905260248201527f4f776e61626c653a2063616c6c6572206973206e6f7420746865206f776e65726044820152606401610641565b600080546001600160a01b038381166001600160a01b0319831681178455604051919092169283917f8be0079c531659141344cd1fd0a4f28419497f9722a3daafe3b4186f6b6457e09190a35050565b6040518060c00160405280600081526020016000815260200160008152602001600081526020016000815260200160006003811115611511576115116115e4565b905290565b6001600160a01b038116811461135357600080fd5b6000806040838503121561153e57600080fd5b823561154981611516565b946020939093013593505050565b6000806040838503121561156a57600080fd5b823561157581611516565b9150602083013561158581611516565b809150509250929050565b80356004811061159f57600080fd5b919050565b600080604083850312156115b757600080fd5b61154983611590565b6000602082840312156115d257600080fd5b81356115dd81611516565b9392505050565b634e487b7160e01b600052602160045260246000fd5b6004811061161857634e487b7160e01b600052602160045260246000fd5b9052565b600060c08201905087825286602083015285604083015284606083015283608083015261164c60a08301846115fa565b979650505050505050565b60008060006060848603121561166c57600080fd5b833561167781611516565b95602085013595506040909401359392505050565b600060c082019050825182526020830151602083015260408301516040830152606083015160608301526080830151608083015260a08301516116d260a08401826115fa565b5092915050565b6000602082840312156116eb57600080fd5b5035919050565b60006020828403121561170457600080fd5b6115dd82611590565b602081016105ef82846115fa565b60008083601f84011261172d57600080fd5b50813567ffffffffffffffff81111561174557600080fd5b6020830191508360208260051b850101111561176057600080fd5b9250929050565b6000806000806040858703121561177d57600080fd5b843567ffffffffffffffff8082111561179557600080fd5b6117a18883890161171b565b909650945060208701359150808211156117ba57600080fd5b506117c78782880161171b565b95989497509550505050565b634e487b7160e01b600052601160045260246000fd5b808201808211156105ef576105ef6117d3565b60006001820161180e5761180e6117d3565b5060010190565b634e487b7160e01b600052603260045260246000fd5b60006020828403121561183d57600080fd5b81516115dd8161151656feb51b16cb4103a8ce441e52afe5cfabab49df83ba6b570adcde7724f975bdf7d0a264697066735822122031c92a3a8297ddf3b9554c4ab9f6e790c7bb2fb3e0f39ce4c6d2e2c1dd0c79f264736f6c63430008130033",
  "linkReferences": {},
  "deployedLinkReferences": {}
}