{
  "_format": "hh-sol-artifact-1",
  "contractName": "CulturalMarketplace",
  "sourceName": "contracts/CulturalMarketplace.sol",
  "abi": [
    {
      "inputs": [
        {
          "internalType": "address",
          "name": "_nftContract",
          "type": "address"
        },
        {
          "internalType": "address",
          "name": "_communityWallet",
          "type": "address"
        }
      ],
      "stateMutability": "nonpayable",
      "type": "constructor"
    },
    {
      "anonymous": false,
      "inputs": [
        {
          "indexed": true,
          "internalType": "uint256",
          "name": "listingId",
          "type": "uint256"
        },
        {
          "indexed": true,
          "internalType": "address",
          "name": "winner",
          "type": "address"
        },
        {
          "indexed": false,
          "internalType": "uint256",
          "name": "winningBid",
          "type": "uint256"
        }
      ],
      "name": "AuctionEnded",
      "type": "event"
    },
    {
      "anonymous": false,
      "inputs": [
        {
          "indexed": true,
          "internalType": "uint256",
          "name": "listingId",
          "type": "uint256"
        },
        {
          "indexed": true,
          "internalType": "address",
          "name": "bidder",
          "type": "address"
        },
        {
          "indexed": false,
          "internalType": "uint256",
          "name": "amount",
          "type": "uint256"
        },
        {
          "indexed": false,
          "internalType": "uint256",
          "name": "timestamp",
          "type": "uint256"
        }
      ],
      "name": "BidPlaced",
      "type": "event"
    },
    {
      "anonymous": false,
      "inputs": [
        {
          "indexed": true,
          "internalType": "uint256",
          "name": "listingId",
          "type": "uint256"
        }
      ],
      "name": "ListingCancelled",
      "type": "event"
    },
    {
      "anonymous": false,
      "inputs": [
        {
          "indexed": true,
          "internalType": "uint256",
          "name": "listingId",
          "type": "uint256"
        },
        {
          "indexed": true,
          "internalType": "uint256",
          "name": "tokenId",
          "type": "uint256"
        },
        {
          "indexed": true,
          "internalType": "address",
          "name": "seller",
          "type": "address"
        },
        {
          "indexed": false,
          "internalType": "uint256",
          "name": "price",
          "type": "uint256"
        },
        {
          "indexed": false,
          "internalType": "bool",
          "name": "isAuction",
          "type": "bool"
        },
        {
          "indexed": false,
          "internalType": "uint256",
          "name": "auctionEndTime",
          "type": "uint256"
        }
      ],
      "name": "ListingCreated",
      "type": "event"
    },
    {
      "anonymous": false,
      "inputs": [
        {
          "indexed": true,
          "internalType": "address",
          "name": "previousOwner",
          "type": "address"
        },
        {
          "indexed": true,
          "internalType": "address",
          "name": "newOwner",
          "type": "address"
        }
      ],
      "name": "OwnershipTransferred",
      "type": "event"
    },
    {
      "anonymous": false,
      "inputs": [
        {
          "indexed": true,
          "internalType": "uint256",
          "name": "listingId",
          "type": "uint256"
        },
        {
          "indexed": true,
          "internalType": "uint256",
          "name": "tokenId",
          "type": "uint256"
        },
        {
          "indexed": true,
          "internalType": "address",
          "name": "seller",
          "type": "address"
        },
        {
          "indexed": false,
          "internalType": "address",
          "name": "buyer",
          "type": "address"
        },
        {
          "indexed": false,
          "internalType": "uint256",
          "name": "price",
          "type": "uint256"
        }
      ],
      "name": "Sale",
      "type": "event"
    },
    {
      "inputs": [
        {
          "internalType": "uint256",
          "name": "listingId",
          "type": "uint256"
        }
      ],
      "name": "buyNFT",
      "outputs": [],
      "stateMutability": "payable",
      "type": "function"
    },
    {
      "inputs": [
        {
          "internalType": "uint256",
          "name": "listingId",
          "type": "uint256"
        }
      ],
      "name": "cancelListing",
      "outputs": [],
      "stateMutability": "nonpayable",
      "type": "function"
    },
    {
      "inputs": [],
      "name": "communityWallet",
      "outputs": [
        {
          "internalType": "address",
          "name": "",
          "type": "address"
        }
      ],
      "stateMutability": "view",
      "type": "function"
    },
    {
      "inputs": [
        {
          "internalType": "uint256",
          "name": "tokenId",
          "type": "uint256"
        },
        {
          "internalType": "uint256",
          "name": "startingPrice",
          "type": "uint256"
        },
        {
          "internalType": "uint256",
          "name": "duration",
          "type": "uint256"
        },
        {
          "internalType": "uint256",
          "name": "minBidIncrement",
          "type": "uint256"
        }
      ],
      "name": "createAuction",
      "outputs": [
        {
          "internalType": "uint256",
          "name": "",
          "type": "uint256"
        }
      ],
      "stateMutability": "nonpayable",
      "type": "function"
    },
    {
      "inputs": [
        {
          "internalType": "uint256",
          "name": "tokenId",
          "type": "uint256"
        },
        {
          "internalType": "uint256",
          "name": "price",
          "type": "uint256"
        }
      ],
      "name": "createListing",
      "outputs": [
        {
          "internalType": "uint256",
          "name": "",
          "type": "uint256"
        }
      ],
      "stateMutability": "nonpayable",
      "type": "function"
    },
    {
      "inputs": [
        {
          "internalType": "uint256",
          "name": "listingId",
          "type": "uint256"
        }
      ],
      "name": "endAuction",
      "outputs": [],
      "stateMutability": "nonpayable",
      "type": "function"
    },
    {
      "inputs": [
        {
          "internalType": "uint256",
          "name": "listingId",
          "type": "uint256"
        }
      ],
      "name": "getListing",
      "outputs": [
        {
          "components": [
            {
              "internalType": "uint256",
              "name": "tokenId",
              "type": "uint256"
            },
            {
              "internalType": "address",
              "name": "seller",
              "type": "address"
            },
            {
              "internalType": "uint256",
              "name": "price",
              "type": "uint256"
            },
            {
              "internalType": "bool",
              "name": "isActive",
              "type": "bool"
            },
            {
              "internalType": "bool",
              "name": "isAuction",
              "type": "bool"
            },
            {
              "internalType": "uint256",
              "name": "auctionEndTime",
              "type": "uint256"
            },
            {
              "internalType": "address",
              "name": "highestBidder",
              "type": "address"
            },
            {
              "internalType": "uint256",
              "name": "highestBid",
              "type": "uint256"
            },
            {
              "internalType": "uint256",
              "name": "minBidIncrement",
              "type": "uint256"
            }
          ],
          "internalType": "struct CulturalMarketplace.Listing",
          "name": "",
          "type": "tuple"
        }
      ],
      "stateMutability": "view",
      "type": "function"
    },
    {
      "inputs": [
        {
          "internalType": "uint256",
          "name": "listingId",
          "type": "uint256"
        }
      ],
      "name": "getListingBids",
      "outputs": [
        {
          "components": [
            {
              "internalType": "address",
              "name": "bidder",
              "type": "address"
            },
            {
              "internalType": "uint256",
              "name": "amount",
              "type": "uint256"
            },
            {
              "internalType": "uint256",
              "name": "timestamp",
              "type": "uint256"
            }
          ],
          "internalType": "struct CulturalMarketplace.Bid[]",
          "name": "",
          "type": "tuple[]"
        }
      ],
      "stateMutability": "view",
      "type": "function"
    },
    {
      "inputs": [
        {
          "internalType": "uint256",
          "name": "",
          "type": "uint256"
        },
        {
          "internalType": "uint256",
          "name": "",
          "type": "uint256"
        }
      ],
      "name": "listingBids",
      "outputs": [
        {
          "internalType": "address",
          "name": "bidder",
          "type": "address"
        },
        {
          "internalType": "uint256",
          "name": "amount",
          "type": "uint256"
        },
        {
          "internalType": "uint256",
          "name": "timestamp",
          "type": "uint256"
        }
      ],
      "stateMutability": "view",
      "type": "function"
    },
    {
      "inputs": [
        {
          "internalType": "uint256",
          "name": "",
          "type": "uint256"
        }
      ],
      "name": "listings",
      "outputs": [
        {
          "internalType": "uint256",
          "name": "tokenId",
          "type": "uint256"
        },
        {
          "internalType": "address",
          "name": "seller",
          "type": "address"
        },
        {
          "internalType": "uint256",
          "name": "price",
          "type": "uint256"
        },
        {
          "internalType": "bool",
          "name": "isActive",
          "type": "bool"
        },
        {
          "internalType": "bool",
          "name": "isAuction",
          "type": "bool"
        },
        {
          "internalType": "uint256",
          "name": "auctionEndTime",
          "type": "uint256"
        },
        {
          "internalType": "address",
          "name": "highestBidder",
          "type": "address"
        },
        {
          "internalType": "uint256",
          "name": "highestBid",
          "type": "uint256"
        },
        {
          "internalType": "uint256",
          "name": "minBidIncrement",
          "type": "uint256"
        }
      ],
      "stateMutability": "view",
      "type": "function"
    },
    {
      "inputs": [],
      "name": "nftContract",
      "outputs": [
        {
          "internalType": "contract CulturalNFT",
          "name": "",
          "type": "address"
        }
      ],
      "stateMutability": "view",
      "type": "function"
    },
    {
      "inputs": [
        {
          "internalType": "address",
          "name": "",
          "type": "address"
        },
        {
          "internalType": "address",
          "name": "",
          "type": "address"
        },
        {
          "internalType": "uint256",
          "name": "",
          "type": "uint256"
        },
        {
          "internalType": "bytes",
          "name": "",
          "type": "bytes"
        }
      ],
      "name": "onERC721Received",
      "outputs": [
        {
          "internalType": "bytes4",
          "name": "",
          "type": "bytes4"
        }
      ],
      "stateMutability": "nonpayable",
      "type": "function"
    },
    {
      "inputs": [],
      "name": "owner",
      "outputs": [
        {
          "internalType": "address",
          "name": "",
          "type": "address"
        }
      ],
      "stateMutability": "view",
      "type": "function"
    },
    {
      "inputs": [
        {
          "internalType": "address",
          "name": "",
          "type": "address"
        }
      ],
      "name": "pendingReturns",
      "outputs": [
        {
          "internalType": "uint256",
          "name": "",
          "type": "uint256"
        }
      ],
      "stateMutability": "view",
      "type": "function"
    },
    {
      "inputs": [
        {
          "internalType": "uint256",
          "name": "listingId",
          "type": "uint256"
        }
      ],
      "name": "placeBid",
      "outputs": [],
      "stateMutability": "payable",
      "type": "function"
    },
    {
      "inputs": [],
      "name": "platformFeePercent",
      "outputs": [
        {
          "internalType": "uint256",
          "name": "",
          "type": "uint256"
        }
      ],
      "stateMutability": "view",
      "type": "function"
    },
    {
      "inputs": [],
      "name": "renounceOwnership",
      "outputs": [],
      "stateMutability": "nonpayable",
      "type": "function"
    },
    {
      "inputs": [
        {
          "internalType": "address",
          "name": "newOwner",
          "type": "address"
        }
      ],
      "name": "transferOwnership",
      "outputs": [],
      "stateMutability": "nonpayable",
      "type": "function"
    },
    {
      "inputs": [
        {
          "internalType": "address",
          "name": "_newWallet",
          "type": "address"
        }
      ],
      "name": "updateCommunityWallet",
      "outputs": [],
      "stateMutability": "nonpayable",
      "type": "function"
    },
    {
      "inputs": [
        {
          "internalType": "uint256",
          "name": "_newFeePercent",
          "type": "uint256"
        }
      ],
      "name": "updatePlatformFee",
      "outputs": [],
      "stateMutability": "nonpayable",
      "type": "function"
    },
    {
      "inputs": [],
      "name": "withdraw",
      "outputs": [],
      "stateMutability": "nonpayable",
      "type": "function"
    }
  ],
  "bytecode": "0x608060405260fa6006553480156200001657600080fd5b506040516200257f3803806200257f8339810160408190526200003991620000ea565b600160005562000049336200007b565b600880546001600160a01b039384166001600160a01b0319918216179091556007805492909316911617905562000122565b600180546001600160a01b038381166001600160a01b0319831681179093556040519116919082907f8be0079c531659141344cd1fd0a4f28419497f9722a3daafe3b4186f6b6457e090600090a35050565b80516001600160a01b0381168114620000e557600080fd5b919050565b60008060408385031215620000fe57600080fd5b6200010983620000cd565b91506200011960208401620000cd565b90509250929050565b61244d80620001326000396000f3fe60806040526004361061012a5760003560e01c806390e467a1116100ab578063aa0b59881161006f578063aa0b598814610365578063b9a2de3a14610385578063c7574839146103a5578063d56d229d146103c5578063de74e57b146103e5578063f2fde38b146104ad57600080fd5b806390e467a1146102a05780639979ef45146102cd5780639da0e1dd146102e0578063a6ce120a14610325578063a79123a91461034557600080fd5b8063431f21da116100f2578063431f21da1461021057806351ed828814610230578063715018a6146102435780638c639a85146102585780638da5cb5b1461026e57600080fd5b8063107a274a1461012f578063150b7a021461016557806326b387bb1461019e578063305a67a8146101d95780633ccfd60b146101fb575b600080fd5b34801561013b57600080fd5b5061014f61014a366004612046565b6104cd565b60405161015c919061205f565b60405180910390f35b34801561017157600080fd5b50610185610180366004612112565b6105c5565b6040516001600160e01b0319909116815260200161015c565b3480156101aa57600080fd5b506101cb6101b93660046121f2565b60046020526000908152604090205481565b60405190815260200161015c565b3480156101e557600080fd5b506101f96101f4366004612046565b6105d6565b005b34801561020757600080fd5b506101f96107c9565b34801561021c57600080fd5b506101cb61022b366004612216565b6108ce565b6101f961023e366004612046565b610d9c565b34801561024f57600080fd5b506101f9611043565b34801561026457600080fd5b506101cb60065481565b34801561027a57600080fd5b506001546001600160a01b03165b6040516001600160a01b03909116815260200161015c565b3480156102ac57600080fd5b506102c06102bb366004612046565b611055565b60405161015c9190612248565b6101f96102db366004612046565b6110ea565b3480156102ec57600080fd5b506103006102fb3660046122aa565b61137d565b604080516001600160a01b03909416845260208401929092529082015260600161015c565b34801561033157600080fd5b506101f96103403660046121f2565b6113c9565b34801561035157600080fd5b506101cb6103603660046122aa565b611442565b34801561037157600080fd5b506101f9610380366004612046565b611834565b34801561039157600080fd5b506101f96103a0366004612046565b61188b565b3480156103b157600080fd5b50600754610288906001600160a01b031681565b3480156103d157600080fd5b50600854610288906001600160a01b031681565b3480156103f157600080fd5b5061045c610400366004612046565b60026020819052600091825260409091208054600182015492820154600383015460048401546005850154600686015460079096015494966001600160a01b0390811696949560ff808616966101009096041694919092169189565b60408051998a526001600160a01b0398891660208b01528901969096529315156060880152911515608087015260a086015290921660c084015260e08301919091526101008201526101200161015c565b3480156104b957600080fd5b506101f96104c83660046121f2565b611b89565b6105326040518061012001604052806000815260200160006001600160a01b03168152602001600081526020016000151581526020016000151581526020016000815260200160006001600160a01b0316815260200160008152602001600081525090565b506000908152600260208181526040928390208351610120810185528154815260018201546001600160a01b03908116938201939093529281015493830193909352600383015460ff80821615156060850152610100918290041615156080840152600484015460a0840152600584015490911660c0830152600683015460e08301526007909201549181019190915290565b630a85bd0160e11b5b949350505050565b6105de611bff565b600081815260026020526040902060018101546001600160a01b0316331461063e5760405162461bcd60e51b815260206004820152600e60248201526d2737ba103a34329039b2b63632b960911b60448201526064015b60405180910390fd5b600381015460ff166106625760405162461bcd60e51b8152600401610635906122cc565b6003810154610100900460ff168015610687575060058101546001600160a01b031615155b1561071657806004015442106106df5760405162461bcd60e51b815260206004820152601f60248201527f43616e6e6f742063616e63656c2061756374696f6e20776974682062696473006044820152606401610635565b600681015460058201546001600160a01b03166000908152600460205260408120805490919061071090849061230e565b90915550505b60038101805460ff1916905560085460018201548254604051632142170760e11b81526001600160a01b03938416936342842e0e9361075e9330939290911691600401612321565b600060405180830381600087803b15801561077857600080fd5b505af115801561078c573d6000803e3d6000fd5b50506040518492507f411aee90354c51b1b04cd563fcab2617142a9d50da19232d888547c8a1b7fd8a9150600090a2506107c66001600055565b50565b6107d1611bff565b33600090815260046020526040902054806108255760405162461bcd60e51b81526020600482015260146024820152734e6f2066756e647320746f20776974686472617760601b6044820152606401610635565b336000818152600460205260408082208290555190919083908381818185875af1925050503d8060008114610876576040519150601f19603f3d011682016040523d82523d6000602084013e61087b565b606091505b50509050806108c05760405162461bcd60e51b815260206004820152601160248201527015da5d1a191c985dd85b0819985a5b1959607a1b6044820152606401610635565b50506108cc6001600055565b565b60006108d8611bff565b6008546040516331a9108f60e11b81526004810187905233916001600160a01b031690636352211e90602401602060405180830381865afa158015610921573d6000803e3d6000fd5b505050506040513d601f19601f820116820180604052508101906109459190612345565b6001600160a01b03161461098d5760405162461bcd60e51b815260206004820152600f60248201526e2737ba103a37b5b2b71037bbb732b960891b6044820152606401610635565b600084116109eb5760405162461bcd60e51b815260206004820152602560248201527f5374617274696e67207072696365206d75737420626520677265617465722074604482015264068616e20360dc1b6064820152608401610635565b60008311610a3b5760405162461bcd60e51b815260206004820152601f60248201527f4475726174696f6e206d7573742062652067726561746572207468616e2030006044820152606401610635565b60085460405163e985e9c560e01b81523360048201523060248201526001600160a01b039091169063e985e9c590604401602060405180830381865afa158015610a89573d6000803e3d6000fd5b505050506040513d601f19601f82011682018060405250810190610aad9190612362565b80610b2b575060085460405163020604bf60e21b81526004810187905230916001600160a01b03169063081812fc90602401602060405180830381865afa158015610afc573d6000803e3d6000fd5b505050506040513d601f19601f82011682018060405250810190610b209190612345565b6001600160a01b0316145b610b6f5760405162461bcd60e51b815260206004820152601560248201527410dbdb9d1c9858dd081b9bdd08185c1c1c9bdd9959605a1b6044820152606401610635565b6005805460009182610b8083612384565b9091555090506000610b92854261230e565b9050604051806101200160405280888152602001336001600160a01b0316815260200187815260200160011515815260200160011515815260200182815260200160006001600160a01b031681526020016000815260200185815250600260008481526020019081526020016000206000820151816000015560208201518160010160006101000a8154816001600160a01b0302191690836001600160a01b031602179055506040820151816002015560608201518160030160006101000a81548160ff02191690831515021790555060808201518160030160016101000a81548160ff02191690831515021790555060a0820151816004015560c08201518160050160006101000a8154816001600160a01b0302191690836001600160a01b0316021790555060e082015181600601556101008201518160070155905050600860009054906101000a90046001600160a01b03166001600160a01b03166342842e0e33308a6040518463ffffffff1660e01b8152600401610d1693929190612321565b600060405180830381600087803b158015610d3057600080fd5b505af1158015610d44573d6000803e3d6000fd5b5050604080518981526001602082015290810184905233925089915084907f1cae5525f87067ef67a0db7aff8c2a8fcffb64dbc6783da4c7196954ca86b9cf9060600160405180910390a45090506105ce6001600055565b610da4611bff565b6000818152600260205260409020600381015460ff16610dd65760405162461bcd60e51b8152600401610635906122cc565b6003810154610100900460ff1615610e415760405162461bcd60e51b815260206004820152602860248201527f5468697320697320616e2061756374696f6e2c2075736520706c616365426964604482015267081a5b9cdd19585960c21b6064820152608401610635565b8060020154341015610e8c5760405162461bcd60e51b8152602060048201526014602482015273125b9cdd59999a58da595b9d081c185e5b595b9d60621b6044820152606401610635565b60038101805460ff1916905580546002820154600091829182918291610eb29190611c58565b6008548954604051632142170760e11b815295995093975091955093506001600160a01b0316916342842e0e91610eef9130913391600401612321565b600060405180830381600087803b158015610f0957600080fd5b505af1158015610f1d573d6000803e3d6000fd5b5050506001860154610f3c91506001600160a01b031685858585611d8a565b8460020154341115610fe05760028501546000903390610f5c903461239d565b604051600081818185875af1925050503d8060008114610f98576040519150601f19603f3d011682016040523d82523d6000602084013e610f9d565b606091505b5050905080610fde5760405162461bcd60e51b815260206004820152600d60248201526c1499599d5b990819985a5b1959609a1b6044820152606401610635565b505b6001850154855460028701546040805133815260208101929092526001600160a01b039093169289917f80af6c445a8ff068828bb5ba9bd06f39a217e51f6102a5ea4a579a16865fc399910160405180910390a450505050506107c66001600055565b61104b611f9a565b6108cc6000611ff4565b606060036000838152602001908152602001600020805480602002602001604051908101604052809291908181526020016000905b828210156110df576000848152602090819020604080516060810182526003860290920180546001600160a01b031683526001808201548486015260029091015491830191909152908352909201910161108a565b505050509050919050565b6110f2611bff565b6000818152600260205260409020600381015460ff166111245760405162461bcd60e51b8152600401610635906122cc565b6003810154610100900460ff166111765760405162461bcd60e51b81526020600482015260166024820152752a3434b99034b9903737ba1030b71030bab1ba34b7b760511b6044820152606401610635565b806004015442106111b95760405162461bcd60e51b815260206004820152600d60248201526c105d58dd1a5bdb88195b991959609a1b6044820152606401610635565b806002015434101561120d5760405162461bcd60e51b815260206004820152601860248201527f4269642062656c6f77207374617274696e6720707269636500000000000000006044820152606401610635565b80600701548160060154611221919061230e565b3410156112685760405162461bcd60e51b815260206004820152601560248201527442696420696e6372656d656e7420746f6f206c6f7760581b6044820152606401610635565b60058101546001600160a01b0316156112b257600681015460058201546001600160a01b0316600090815260046020526040812080549091906112ac90849061230e565b90915550505b600581018054336001600160a01b0319918216811790925534600684018190556000858152600360208181526040808420815160608101835288815280840187815242828501818152845460018181018755958a529887902093519890970290920180549099166001600160a01b03909716969096178855945190870155915160029095019490945580519283529282015284917f51db8e23b3f4479b162fd48823b8402895442b8f6cfd94f66239391881ec7b6f91015b60405180910390a3506107c66001600055565b6003602052816000526040600020818154811061139957600080fd5b60009182526020909120600390910201805460018201546002909201546001600160a01b03909116935090915083565b6113d1611f9a565b6001600160a01b0381166114205760405162461bcd60e51b8152602060048201526016602482015275496e76616c69642077616c6c6574206164647265737360501b6044820152606401610635565b600780546001600160a01b0319166001600160a01b0392909216919091179055565b600061144c611bff565b6008546040516331a9108f60e11b81526004810185905233916001600160a01b031690636352211e90602401602060405180830381865afa158015611495573d6000803e3d6000fd5b505050506040513d601f19601f820116820180604052508101906114b99190612345565b6001600160a01b0316146115015760405162461bcd60e51b815260206004820152600f60248201526e2737ba103a37b5b2b71037bbb732b960891b6044820152606401610635565b600082116115515760405162461bcd60e51b815260206004820152601c60248201527f5072696365206d7573742062652067726561746572207468616e2030000000006044820152606401610635565b60085460405163e985e9c560e01b81523360048201523060248201526001600160a01b039091169063e985e9c590604401602060405180830381865afa15801561159f573d6000803e3d6000fd5b505050506040513d601f19601f820116820180604052508101906115c39190612362565b80611641575060085460405163020604bf60e21b81526004810185905230916001600160a01b03169063081812fc90602401602060405180830381865afa158015611612573d6000803e3d6000fd5b505050506040513d601f19601f820116820180604052508101906116369190612345565b6001600160a01b0316145b6116855760405162461bcd60e51b815260206004820152601560248201527410dbdb9d1c9858dd081b9bdd08185c1c1c9bdd9959605a1b6044820152606401610635565b600580546000918261169683612384565b90915550604080516101208101825286815233602080830182815283850189815260016060860181815260006080880181815260a0890182815260c08a0183815260e08b01848152610100808d018681528f875260029b8c9052958e90209c518d559851968c0180546001600160a01b03199081166001600160a01b03998a16179091559751998c0199909955935160038b018054935161ffff1990941691151561ff001916919091179215159097029190911790955593516004808901919091559051600588018054909416908316179092559251600686015590516007909401939093556008549351632142170760e11b815294955092909216926342842e0e926117a992909130918a9101612321565b600060405180830381600087803b1580156117c357600080fd5b505af11580156117d7573d6000803e3d6000fd5b50506040805186815260006020820181905281830152905133935087925084917f1cae5525f87067ef67a0db7aff8c2a8fcffb64dbc6783da4c7196954ca86b9cf919081900360600190a4905061182e6001600055565b92915050565b61183c611f9a565b6103e88111156118865760405162461bcd60e51b81526020600482015260156024820152744665652063616e6e6f74206578636565642031302560581b6044820152606401610635565b600655565b611893611bff565b6000818152600260205260409020600381015460ff166118c55760405162461bcd60e51b8152600401610635906122cc565b6003810154610100900460ff166119175760405162461bcd60e51b81526020600482015260166024820152752a3434b99034b9903737ba1030b71030bab1ba34b7b760511b6044820152606401610635565b80600401544210156119625760405162461bcd60e51b815260206004820152601460248201527341756374696f6e207374696c6c2061637469766560601b6044820152606401610635565b60038101805460ff1916905560058101546001600160a01b031615611adb5760008060008061199985600001548660060154611c58565b60085460058a01548a54604051632142170760e11b8152969a509498509296509094506001600160a01b03908116936342842e0e936119de9330931691600401612321565b600060405180830381600087803b1580156119f857600080fd5b505af1158015611a0c573d6000803e3d6000fd5b5050506001860154611a2b91506001600160a01b031685858585611d8a565b6001850154855460058701546006880154604080516001600160a01b0393841681526020810192909252919093169289917f80af6c445a8ff068828bb5ba9bd06f39a217e51f6102a5ea4a579a16865fc399910160405180910390a4600585015460068601546040519081526001600160a01b039091169087907fd2aa34a4fdbbc6dff6a3e56f46e0f3ae2a31d7785ff3487aa5c95c642acea5019060200160405180910390a350505050611b7e565b60085460018201548254604051632142170760e11b81526001600160a01b03938416936342842e0e93611b179330939290911691600401612321565b600060405180830381600087803b158015611b3157600080fd5b505af1158015611b45573d6000803e3d6000fd5b5050604051600080825292508491507fd2aa34a4fdbbc6dff6a3e56f46e0f3ae2a31d7785ff3487aa5c95c642acea5019060200161136a565b506107c66001600055565b611b91611f9a565b6001600160a01b038116611bf65760405162461bcd60e51b815260206004820152602660248201527f4f776e61626c653a206e6577206f776e657220697320746865207a65726f206160448201526564647265737360d01b6064820152608401610635565b6107c681611ff4565b600260005403611c515760405162461bcd60e51b815260206004820152601f60248201527f5265656e7472616e637947756172643a207265656e7472616e742063616c6c006044820152606401610635565b6002600055565b60008060008061271060065486611c6f91906123b0565b611c7991906123c7565b6008546040516301ffc9a760e01b815263152a902d60e11b60048201529194506001600160a01b0316906301ffc9a790602401602060405180830381865afa158015611cc9573d6000803e3d6000fd5b505050506040513d601f19601f82011682018060405250810190611ced9190612362565b15611d6a5760085460405163152a902d60e11b815260048101889052602481018790526001600160a01b0390911690632a55205a906044016040805180830381865afa158015611d41573d6000803e3d6000fd5b505050506040513d601f19601f82011682018060405250810190611d6591906123e9565b925090505b81611d75848761239d565b611d7f919061239d565b935092959194509250565b8315611e2d576000856001600160a01b03168560405160006040518083038185875af1925050503d8060008114611ddd576040519150601f19603f3d011682016040523d82523d6000602084013e611de2565b606091505b5050905080611e2b5760405162461bcd60e51b815260206004820152601560248201527414d95b1b195c881c185e5b595b9d0819985a5b1959605a1b6044820152606401610635565b505b8215611ed8576007546040516000916001600160a01b03169085908381818185875af1925050503d8060008114611e80576040519150601f19603f3d011682016040523d82523d6000602084013e611e85565b606091505b5050905080611ed65760405162461bcd60e51b815260206004820152601b60248201527f506c6174666f726d20666565207061796d656e74206661696c656400000000006044820152606401610635565b505b600082118015611ef057506001600160a01b03811615155b15611f93576000816001600160a01b03168360405160006040518083038185875af1925050503d8060008114611f42576040519150601f19603f3d011682016040523d82523d6000602084013e611f47565b606091505b5050905080611f915760405162461bcd60e51b8152602060048201526016602482015275149bde585b1d1e481c185e5b595b9d0819985a5b195960521b6044820152606401610635565b505b5050505050565b6001546001600160a01b031633146108cc5760405162461bcd60e51b815260206004820181905260248201527f4f776e61626c653a2063616c6c6572206973206e6f7420746865206f776e65726044820152606401610635565b600180546001600160a01b038381166001600160a01b0319831681179093556040519116919082907f8be0079c531659141344cd1fd0a4f28419497f9722a3daafe3b4186f6b6457e090600090a35050565b60006020828403121561205857600080fd5b5035919050565b815181526020808301516001600160a01b031690820152604080830151908201526060808301511515908201526080808301516101208301916120a59084018215159052565b5060a083015160a083015260c08301516120ca60c08401826001600160a01b03169052565b5060e083015160e083015261010080840151818401525092915050565b6001600160a01b03811681146107c657600080fd5b634e487b7160e01b600052604160045260246000fd5b6000806000806080858703121561212857600080fd5b8435612133816120e7565b93506020850135612143816120e7565b925060408501359150606085013567ffffffffffffffff8082111561216757600080fd5b818701915087601f83011261217b57600080fd5b81358181111561218d5761218d6120fc565b604051601f8201601f19908116603f011681019083821181831017156121b5576121b56120fc565b816040528281528a60208487010111156121ce57600080fd5b82602086016020830137600060208483010152809550505050505092959194509250565b60006020828403121561220457600080fd5b813561220f816120e7565b9392505050565b6000806000806080858703121561222c57600080fd5b5050823594602084013594506040840135936060013592509050565b602080825282518282018190526000919060409081850190868401855b8281101561229d57815180516001600160a01b0316855286810151878601528501518585015260609093019290850190600101612265565b5091979650505050505050565b600080604083850312156122bd57600080fd5b50508035926020909101359150565b6020808252601290820152714c697374696e67206e6f742061637469766560701b604082015260600190565b634e487b7160e01b600052601160045260246000fd5b8082018082111561182e5761182e6122f8565b6001600160a01b039384168152919092166020820152604081019190915260600190565b60006020828403121561235757600080fd5b815161220f816120e7565b60006020828403121561237457600080fd5b8151801515811461220f57600080fd5b600060018201612396576123966122f8565b5060010190565b8181038181111561182e5761182e6122f8565b808202811582820484141761182e5761182e6122f8565b6000826123e457634e487b7160e01b600052601260045260246000fd5b500490565b600080604083850312156123fc57600080fd5b8251612407816120e7565b602093909301519294929350505056fea2646970667358221220bbec1c099691c2ab978ee0bfb7ecbd4304833b8f1a892dcf3e7c168a0795f71c64736f6c63430008130033",
  "linkReferences": {},
  "deployedLinkReferences": {}
}