{
  "_format": "hh-sol-artifact-1",
  "contractName": "CulturalNFT",
  "sourceName": "contracts/CulturalNFT.sol",
  "abi": [
    {
      "inputs": [
        {
          "internalType": "address",
          "name": "_communityWallet",
          "type": "address"
        }
      ],
      "stateMutability": "nonpayable",
      "type": "constructor"
    },
    {
      "anonymous": false,
      "inputs": [
        {
          "indexed": true,
          "internalType": "address",
          "name": "owner",
          "type": "address"
        },
        {
          "indexed": true,
          "internalType": "address",
          "name": "approved",
          "type": "address"
        },
        {
          "indexed": true,
          "internalType": "uint256",
          "name": "tokenId",
          "type": "uint256"
        }
      ],
      "name": "Approval",
      "type": "event"
    },
    {
      "anonymous": false,
      "inputs": [
        {
          "indexed": true,
          "internalType": "address",
          "name": "owner",
          "type": "address"
        },
        {
          "indexed": true,
          "internalType": "address",
          "name": "operator",
          "type": "address"
        },
        {
          "indexed": false,
          "internalType": "bool",
          "name": "approved",
          "type": "bool"
        }
      ],
      "name": "ApprovalForAll",
      "type": "event"
    },
    {
      "anonymous": false,
      "inputs": [
        {
          "indexed": true,
          "internalType": "uint256",
          "name": "tokenId",
          "type": "uint256"
        },
        {
          "indexed": true,
          "internalType": "address",
          "name": "liker",
          "type": "address"
        },
        {
          "indexed": false,
          "internalType": "uint256",
          "name": "amount",
          "type": "uint256"
        },
        {
          "indexed": false,
          "internalType": "uint256",
          "name": "totalLikes",
          "type": "uint256"
        }
      ],
      "name": "ArtworkLiked",
      "type": "event"
    },
    {
      "anonymous": false,
      "inputs": [
        {
          "indexed": false,
          "internalType": "uint256",
          "name": "_fromTokenId",
          "type": "uint256"
        },
        {
          "indexed": false,
          "internalType": "uint256",
          "name": "_toTokenId",
          "type": "uint256"
        }
      ],
      "name": "BatchMetadataUpdate",
      "type": "event"
    },
    {
      "anonymous": false,
      "inputs": [
        {
          "indexed": true,
          "internalType": "uint256",
          "name": "tokenId",
          "type": "uint256"
        },
        {
          "indexed": true,
          "internalType": "address",
          "name": "artist",
          "type": "address"
        },
        {
          "indexed": false,
          "internalType": "uint256",
          "name": "amount",
          "type": "uint256"
        }
      ],
      "name": "CommunityRewardDistributed",
      "type": "event"
    },
    {
      "anonymous": false,
      "inputs": [
        {
          "indexed": false,
          "internalType": "uint256",
          "name": "_tokenId",
          "type": "uint256"
        }
      ],
      "name": "MetadataUpdate",
      "type": "event"
    },
    {
      "anonymous": false,
      "inputs": [
        {
          "indexed": true,
          "internalType": "uint256",
          "name": "tokenId",
          "type": "uint256"
        },
        {
          "indexed": true,
          "internalType": "address",
          "name": "artist",
          "type": "address"
        },
        {
          "indexed": false,
          "internalType": "string",
          "name": "culture",
          "type": "string"
        },
        {
          "indexed": false,
          "internalType": "string",
          "name": "tokenURI",
          "type": "string"
        },
        {
          "indexed": false,
          "internalType": "uint96",
          "name": "royaltyPercent",
          "type": "uint96"
        }
      ],
      "name": "NFTMinted",
      "type": "event"
    },
    {
      "anonymous": false,
      "inputs": [
        {
          "indexed": true,
          "internalType": "address",
          "name": "previousOwner",
          "type": "address"
        },
        {
          "indexed": true,
          "internalType": "address",
          "name": "newOwner",
          "type": "address"
        }
      ],
      "name": "OwnershipTransferred",
      "type": "event"
    },
    {
      "anonymous": false,
      "inputs": [
        {
          "indexed": true,
          "internalType": "address",
          "name": "from",
          "type": "address"
        },
        {
          "indexed": true,
          "internalType": "address",
          "name": "to",
          "type": "address"
        },
        {
          "indexed": true,
          "internalType": "uint256",
          "name": "tokenId",
          "type": "uint256"
        }
      ],
      "name": "Transfer",
      "type": "event"
    },
    {
      "inputs": [
        {
          "internalType": "address",
          "name": "to",
          "type": "address"
        },
        {
          "internalType": "uint256",
          "name": "tokenId",
          "type": "uint256"
        }
      ],
      "name": "approve",
      "outputs": [],
      "stateMutability": "nonpayable",
      "type": "function"
    },
    {
      "inputs": [
        {
          "internalType": "address",
          "name": "owner",
          "type": "address"
        }
      ],
      "name": "balanceOf",
      "outputs": [
        {
          "internalType": "uint256",
          "name": "",
          "type": "uint256"
        }
      ],
      "stateMutability": "view",
      "type": "function"
    },
    {
      "inputs": [],
      "name": "communityWallet",
      "outputs": [
        {
          "internalType": "address",
          "name": "",
          "type": "address"
        }
      ],
      "stateMutability": "view",
      "type": "function"
    },
    {
      "inputs": [
        {
          "internalType": "uint256",
          "name": "",
          "type": "uint256"
        }
      ],
      "name": "culturalData",
      "outputs": [
        {
          "internalType": "string",
          "name": "culture",
          "type": "string"
        },
        {
          "internalType": "string",
          "name": "artist",
          "type": "string"
        },
        {
          "internalType": "string",
          "name": "story",
          "type": "string"
        },
        {
          "internalType": "uint256",
          "name": "mintTimestamp",
          "type": "uint256"
        },
        {
          "internalType": "bool",
          "name": "isActive",
          "type": "bool"
        }
      ],
      "stateMutability": "view",
      "type": "function"
    },
    {
      "inputs": [
        {
          "internalType": "uint256",
          "name": "tokenId",
          "type": "uint256"
        }
      ],
      "name": "getApproved",
      "outputs": [
        {
          "internalType": "address",
          "name": "",
          "type": "address"
        }
      ],
      "stateMutability": "view",
      "type": "function"
    },
    {
      "inputs": [
        {
          "internalType": "uint256",
          "name": "tokenId",
          "type": "uint256"
        }
      ],
      "name": "getCulturalData",
      "outputs": [
        {
          "components": [
            {
              "internalType": "string",
              "name": "culture",
              "type": "string"
            },
            {
              "internalType": "string",
              "name": "artist",
              "type": "string"
            },
            {
              "internalType": "string",
              "name": "story",
              "type": "string"
            },
            {
              "internalType": "uint256",
              "name": "mintTimestamp",
              "type": "uint256"
            },
            {
              "internalType": "bool",
              "name": "isActive",
              "type": "bool"
            }
          ],
          "internalType": "struct CulturalNFT.CulturalMetadata",
          "name": "",
          "type": "tuple"
        }
      ],
      "stateMutability": "view",
      "type": "function"
    },
    {
      "inputs": [
        {
          "internalType": "uint256",
          "name": "tokenId",
          "type": "uint256"
        }
      ],
      "name": "getLikeStats",
      "outputs": [
        {
          "internalType": "uint256",
          "name": "likes",
          "type": "uint256"
        },
        {
          "internalType": "uint256",
          "name": "rewards",
          "type": "uint256"
        }
      ],
      "stateMutability": "view",
      "type": "function"
    },
    {
      "inputs": [
        {
          "internalType": "address",
          "name": "user",
          "type": "address"
        },
        {
          "internalType": "uint256",
          "name": "tokenId",
          "type": "uint256"
        }
      ],
      "name": "hasUserLiked",
      "outputs": [
        {
          "internalType": "bool",
          "name": "",
          "type": "bool"
        }
      ],
      "stateMutability": "view",
      "type": "function"
    },
    {
      "inputs": [
        {
          "internalType": "address",
          "name": "owner",
          "type": "address"
        },
        {
          "internalType": "address",
          "name": "operator",
          "type": "address"
        }
      ],
      "name": "isApprovedForAll",
      "outputs": [
        {
          "internalType": "bool",
          "name": "",
          "type": "bool"
        }
      ],
      "stateMutability": "view",
      "type": "function"
    },
    {
      "inputs": [
        {
          "internalType": "uint256",
          "name": "tokenId",
          "type": "uint256"
        }
      ],
      "name": "likeArtwork",
      "outputs": [],
      "stateMutability": "payable",
      "type": "function"
    },
    {
      "inputs": [
        {
          "internalType": "address",
          "name": "to",
          "type": "address"
        },
        {
          "internalType": "string",
          "name": "_tokenURI",
          "type": "string"
        },
        {
          "internalType": "string",
          "name": "culture",
          "type": "string"
        },
        {
          "internalType": "string",
          "name": "artist",
          "type": "string"
        },
        {
          "internalType": "string",
          "name": "story",
          "type": "string"
        },
        {
          "internalType": "uint96",
          "name": "royaltyPercent",
          "type": "uint96"
        }
      ],
      "name": "mintCulturalNFT",
      "outputs": [
        {
          "internalType": "uint256",
          "name": "",
          "type": "uint256"
        }
      ],
      "stateMutability": "payable",
      "type": "function"
    },
    {
      "inputs": [],
      "name": "name",
      "outputs": [
        {
          "internalType": "string",
          "name": "",
          "type": "string"
        }
      ],
      "stateMutability": "view",
      "type": "function"
    },
    {
      "inputs": [],
      "name": "owner",
      "outputs": [
        {
          "internalType": "address",
          "name": "",
          "type": "address"
        }
      ],
      "stateMutability": "view",
      "type": "function"
    },
    {
      "inputs": [
        {
          "internalType": "uint256",
          "name": "tokenId",
          "type": "uint256"
        }
      ],
      "name": "ownerOf",
      "outputs": [
        {
          "internalType": "address",
          "name": "",
          "type": "address"
        }
      ],
      "stateMutability": "view",
      "type": "function"
    },
    {
      "inputs": [],
      "name": "platformFeePercent",
      "outputs": [
        {
          "internalType": "uint256",
          "name": "",
          "type": "uint256"
        }
      ],
      "stateMutability": "view",
      "type": "function"
    },
    {
      "inputs": [],
      "name": "renounceOwnership",
      "outputs": [],
      "stateMutability": "nonpayable",
      "type": "function"
    },
    {
      "inputs": [
        {
          "internalType": "uint256",
          "name": "tokenId",
          "type": "uint256"
        },
        {
          "internalType": "uint256",
          "name": "salePrice",
          "type": "uint256"
        }
      ],
      "name": "royaltyInfo",
      "outputs": [
        {
          "internalType": "address",
          "name": "",
          "type": "address"
        },
        {
          "internalType": "uint256",
          "name": "",
          "type": "uint256"
        }
      ],
      "stateMutability": "view",
      "type": "function"
    },
    {
      "inputs": [
        {
          "internalType": "address",
          "name": "from",
          "type": "address"
        },
        {
          "internalType": "address",
          "name": "to",
          "type": "address"
        },
        {
          "internalType": "uint256",
          "name": "tokenId",
          "type": "uint256"
        }
      ],
      "name": "safeTransferFrom",
      "outputs": [],
      "stateMutability": "nonpayable",
      "type": "function"
    },
    {
      "inputs": [
        {
          "internalType": "address",
          "name": "from",
          "type": "address"
        },
        {
          "internalType": "address",
          "name": "to",
          "type": "address"
        },
        {
          "internalType": "uint256",
          "name": "tokenId",
          "type": "uint256"
        },
        {
          "internalType": "bytes",
          "name": "data",
          "type": "bytes"
        }
      ],
      "name": "safeTransferFrom",
      "outputs": [],
      "stateMutability": "nonpayable",
      "type": "function"
    },
    {
      "inputs": [
        {
          "internalType": "address",
          "name": "operator",
          "type": "address"
        },
        {
          "internalType": "bool",
          "name": "approved",
          "type": "bool"
        }
      ],
      "name": "setApprovalForAll",
      "outputs": [],
      "stateMutability": "nonpayable",
      "type": "function"
    },
    {
      "inputs": [
        {
          "internalType": "bytes4",
          "name": "interfaceId",
          "type": "bytes4"
        }
      ],
      "name": "supportsInterface",
      "outputs": [
        {
          "internalType": "bool",
          "name": "",
          "type": "bool"
        }
      ],
      "stateMutability": "view",
      "type": "function"
    },
    {
      "inputs": [],
      "name": "symbol",
      "outputs": [
        {
          "internalType": "string",
          "name": "",
          "type": "string"
        }
      ],
      "stateMutability": "view",
      "type": "function"
    },
    {
      "inputs": [
        {
          "internalType": "uint256",
          "name": "",
          "type": "uint256"
        }
      ],
      "name": "tokenLikeRewards",
      "outputs": [
        {
          "internalType": "uint256",
          "name": "",
          "type": "uint256"
        }
      ],
      "stateMutability": "view",
      "type": "function"
    },
    {
      "inputs": [
        {
          "internalType": "uint256",
          "name": "",
          "type": "uint256"
        }
      ],
      "name": "tokenLikes",
      "outputs": [
        {
          "internalType": "uint256",
          "name": "",
          "type": "uint256"
        }
      ],
      "stateMutability": "view",
      "type": "function"
    },
    {
      "inputs": [
        {
          "internalType": "uint256",
          "name": "tokenId",
          "type": "uint256"
        }
      ],
      "name": "tokenURI",
      "outputs": [
        {
          "internalType": "string",
          "name": "",
          "type": "string"
        }
      ],
      "stateMutability": "view",
      "type": "function"
    },
    {
      "inputs": [],
      "name": "totalSupply",
      "outputs": [
        {
          "internalType": "uint256",
          "name": "",
          "type": "uint256"
        }
      ],
      "stateMutability": "view",
      "type": "function"
    },
    {
      "inputs": [
        {
          "internalType": "address",
          "name": "from",
          "type": "address"
        },
        {
          "internalType": "address",
          "name": "to",
          "type": "address"
        },
        {
          "internalType": "uint256",
          "name": "tokenId",
          "type": "uint256"
        }
      ],
      "name": "transferFrom",
      "outputs": [],
      "stateMutability": "nonpayable",
      "type": "function"
    },
    {
      "inputs": [
        {
          "internalType": "address",
          "name": "newOwner",
          "type": "address"
        }
      ],
      "name": "transferOwnership",
      "outputs": [],
      "stateMutability": "nonpayable",
      "type": "function"
    },
    {
      "inputs": [
        {
          "internalType": "address",
          "name": "_newWallet",
          "type": "address"
        }
      ],
      "name": "updateCommunityWallet",
      "outputs": [],
      "stateMutability": "nonpayable",
      "type": "function"
    },
    {
      "inputs": [
        {
          "internalType": "uint256",
          "name": "_newFeePercent",
          "type": "uint256"
        }
      ],
      "name": "updatePlatformFee",
      "outputs": [],
      "stateMutability": "nonpayable",
      "type": "function"
    },
    {
      "inputs": [
        {
          "internalType": "address",
          "name": "",
          "type": "address"
        },
        {
          "internalType": "uint256",
          "name": "",
          "type": "uint256"
        }
      ],
      "name": "userLikes",
      "outputs": [
        {
          "internalType": "bool",
          "name": "",
          "type": "bool"
        }
      ],
      "stateMutability": "view",
      "type": "function"
    }
  ],
  "bytecode": "0x608060405260fa6011553480156200001657600080fd5b5060405162002e2638038062002e26833981016040819052620000399162000139565b6040518060400160405280600c81526020016b10dd5b1d1d5c985b0813919560a21b8152506040518060400160405280600481526020016310d3919560e21b81525081600290816200008c919062000210565b5060036200009b828262000210565b505050620000b8620000b2620000e360201b60201c565b620000e7565b6001600a55601080546001600160a01b0319166001600160a01b0392909216919091179055620002dc565b3390565b600980546001600160a01b038381166001600160a01b0319831681179093556040519116919082907f8be0079c531659141344cd1fd0a4f28419497f9722a3daafe3b4186f6b6457e090600090a35050565b6000602082840312156200014c57600080fd5b81516001600160a01b03811681146200016457600080fd5b9392505050565b634e487b7160e01b600052604160045260246000fd5b600181811c908216806200019657607f821691505b602082108103620001b757634e487b7160e01b600052602260045260246000fd5b50919050565b601f8211156200020b57600081815260208120601f850160051c81016020861015620001e65750805b601f850160051c820191505b818110156200020757828155600101620001f2565b5050505b505050565b81516001600160401b038111156200022c576200022c6200016b565b62000244816200023d845462000181565b84620001bd565b602080601f8311600181146200027c5760008415620002635750858301515b600019600386901b1c1916600185901b17855562000207565b600085815260208120601f198616915b82811015620002ad578886015182559484019460019091019084016200028c565b5085821015620002cc5787850151600019600388901b60f8161c191681555b5050505050600190811b01905550565b612b3a80620002ec6000396000f3fe6080604052600436106101d85760003560e01c806370a0823111610102578063aa0b598811610095578063c87b56dd11610064578063c87b56dd146105c7578063e985e9c5146105e7578063f2fde38b14610630578063fedab3241461065057600080fd5b8063aa0b598814610536578063af08b32714610556578063b88d4fde14610587578063c7574839146105a757600080fd5b80638da5cb5b116100d15780638da5cb5b146104c357806395d89b41146104e1578063a22cb465146104f6578063a6ce120a1461051657600080fd5b806370a0823114610443578063715018a61461046357806377c7549c146104785780638c639a85146104ad57600080fd5b80632a55205a1161017a57806342842e0e1161014957806342842e0e146103c35780635d7db8ba146103e35780636352211e1461041057806369f78b8b1461043057600080fd5b80632a55205a146103175780633038e6dd14610356578063320ee2881461036957806336d705591461039657600080fd5b8063095ea7b3116101b6578063095ea7b31461026c57806318160ddd1461028e5780632080ff78146102b157806323b872dd146102f757600080fd5b806301ffc9a7146101dd57806306fdde0314610212578063081812fc14610234575b600080fd5b3480156101e957600080fd5b506101fd6101f83660046122d0565b61068b565b60405190151581526020015b60405180910390f35b34801561021e57600080fd5b5061022761069c565b604051610209919061233d565b34801561024057600080fd5b5061025461024f366004612350565b61072e565b6040516001600160a01b039091168152602001610209565b34801561027857600080fd5b5061028c610287366004612385565b610755565b005b34801561029a57600080fd5b506102a361086f565b604051908152602001610209565b3480156102bd57600080fd5b506101fd6102cc366004612385565b6001600160a01b03919091166000908152600e60209081526040808320938352929052205460ff1690565b34801561030357600080fd5b5061028c6103123660046123af565b61087f565b34801561032357600080fd5b506103376103323660046123eb565b6108b0565b604080516001600160a01b039093168352602083019190915201610209565b61028c610364366004612350565b61095c565b34801561037557600080fd5b506102a3610384366004612350565b600d6020526000908152604090205481565b3480156103a257600080fd5b506103b66103b1366004612350565b610ba8565b604051610209919061240d565b3480156103cf57600080fd5b5061028c6103de3660046123af565b610def565b3480156103ef57600080fd5b506102a36103fe366004612350565b600f6020526000908152604090205481565b34801561041c57600080fd5b5061025461042b366004612350565b610e0a565b6102a361043e36600461254b565b610e6a565b34801561044f57600080fd5b506102a361045e366004612618565b611191565b34801561046f57600080fd5b5061028c611217565b34801561048457600080fd5b50610498610493366004612350565b61122b565b60408051928352602083019190915201610209565b3480156104b957600080fd5b506102a360115481565b3480156104cf57600080fd5b506009546001600160a01b0316610254565b3480156104ed57600080fd5b50610227611274565b34801561050257600080fd5b5061028c610511366004612633565b611283565b34801561052257600080fd5b5061028c610531366004612618565b611292565b34801561054257600080fd5b5061028c610551366004612350565b61130b565b34801561056257600080fd5b50610576610571366004612350565b611362565b60405161020995949392919061266f565b34801561059357600080fd5b5061028c6105a23660046126c2565b61152c565b3480156105b357600080fd5b50601054610254906001600160a01b031681565b3480156105d357600080fd5b506102276105e2366004612350565b611564565b3480156105f357600080fd5b506101fd61060236600461273e565b6001600160a01b03918216600090815260076020908152604080832093909416825291909152205460ff1690565b34801561063c57600080fd5b5061028c61064b366004612618565b61156f565b34801561065c57600080fd5b506101fd61066b366004612385565b600e60209081526000928352604080842090915290825290205460ff1681565b6000610696826115e5565b92915050565b6060600280546106ab90612771565b80601f01602080910402602001604051908101604052809291908181526020018280546106d790612771565b80156107245780601f106106f957610100808354040283529160200191610724565b820191906000526020600020905b81548152906001019060200180831161070757829003601f168201915b5050505050905090565b6000610739826115f0565b506000908152600660205260409020546001600160a01b031690565b600061076082610e0a565b9050806001600160a01b0316836001600160a01b0316036107d25760405162461bcd60e51b815260206004820152602160248201527f4552433732313a20617070726f76616c20746f2063757272656e74206f776e656044820152603960f91b60648201526084015b60405180910390fd5b336001600160a01b03821614806107ee57506107ee8133610602565b6108605760405162461bcd60e51b815260206004820152603d60248201527f4552433732313a20617070726f76652063616c6c6572206973206e6f7420746f60448201527f6b656e206f776e6572206f7220617070726f76656420666f7220616c6c00000060648201526084016107c9565b61086a8383611640565b505050565b600061087a600b5490565b905090565b61088933826116ae565b6108a55760405162461bcd60e51b81526004016107c9906127ab565b61086a83838361172d565b60008281526001602090815260408083208151808301909252546001600160a01b038116808352600160a01b9091046001600160601b03169282019290925282916109255750604080518082019091526000546001600160a01b0381168252600160a01b90046001600160601b031660208201525b602081015160009061271090610944906001600160601b03168761280e565b61094e9190612825565b915196919550909350505050565b610964611891565b61096d816118ea565b6109895760405162461bcd60e51b81526004016107c990612847565b336000908152600e6020908152604080832084845290915290205460ff16156109f45760405162461bcd60e51b815260206004820152601a60248201527f416c7265616479206c696b6564207468697320617274776f726b00000000000060448201526064016107c9565b670de0b6b3a7640000341015610a4c5760405162461bcd60e51b815260206004820152601960248201527f4d7573742073656e64206174206c65617374203120484241520000000000000060448201526064016107c9565b336000908152600e602090815260408083208484528252808320805460ff19166001179055600d9091528120805491610a8483612875565b90915550506000818152600f602052604081208054349290610aa790849061288e565b90915550506010546040516000916001600160a01b03169034908381818185875af1925050503d8060008114610af9576040519150601f19603f3d011682016040523d82523d6000602084013e610afe565b606091505b5050905080610b4f5760405162461bcd60e51b815260206004820152601b60248201527f4661696c656420746f2073656e64206c696b65207061796d656e74000000000060448201526064016107c9565b6000828152600d602090815260409182902054825134815291820152339184917f4c3eccc80e1068ceaf7b9aaf0b980309843bcf57b0708987d627b5e702b69043910160405180910390a350610ba56001600a55565b50565b610bdc6040518060a00160405280606081526020016060815260200160608152602001600081526020016000151581525090565b610be5826118ea565b610c015760405162461bcd60e51b81526004016107c990612847565b6000828152600c602052604090819020815160a08101909252805482908290610c2990612771565b80601f0160208091040260200160405190810160405280929190818152602001828054610c5590612771565b8015610ca25780601f10610c7757610100808354040283529160200191610ca2565b820191906000526020600020905b815481529060010190602001808311610c8557829003601f168201915b50505050508152602001600182018054610cbb90612771565b80601f0160208091040260200160405190810160405280929190818152602001828054610ce790612771565b8015610d345780601f10610d0957610100808354040283529160200191610d34565b820191906000526020600020905b815481529060010190602001808311610d1757829003601f168201915b50505050508152602001600282018054610d4d90612771565b80601f0160208091040260200160405190810160405280929190818152602001828054610d7990612771565b8015610dc65780601f10610d9b57610100808354040283529160200191610dc6565b820191906000526020600020905b815481529060010190602001808311610da957829003601f168201915b50505091835250506003820154602082015260049091015460ff16151560409091015292915050565b61086a8383836040518060200160405280600081525061152c565b6000818152600460205260408120546001600160a01b0316806106965760405162461bcd60e51b8152602060048201526018602482015277115490cdcc8c4e881a5b9d985b1a59081d1bdad95b88125160421b60448201526064016107c9565b6000610e74611891565b6000855111610ec55760405162461bcd60e51b815260206004820152601760248201527f43756c747572652063616e6e6f7420626520656d70747900000000000000000060448201526064016107c9565b6000845111610f0f5760405162461bcd60e51b81526020600482015260166024820152754172746973742063616e6e6f7420626520656d70747960501b60448201526064016107c9565b6107d0826001600160601b03161115610f6a5760405162461bcd60e51b815260206004820152601960248201527f526f79616c74792063616e6e6f7420657863656564203230250000000000000060448201526064016107c9565b6729a2241af62c000034811115610fc35760405162461bcd60e51b815260206004820152601860248201527f496e73756666696369656e74206d696e74696e6720666565000000000000000060448201526064016107c9565b6000610fce600b5490565b9050610fde600b80546001019055565b610fe88982611907565b610ff28189611921565b610ffd818a866119dd565b6040805160a0810182528881526020808201899052818301889052426060830152600160808301526000848152600c909152919091208151819061104190826128ef565b506020820151600182019061105690826128ef565b506040820151600282019061106b90826128ef565b50606082015160038201556080909101516004909101805460ff19169115159190911790556010546040516000916001600160a01b03169034908381818185875af1925050503d80600081146110dd576040519150601f19603f3d011682016040523d82523d6000602084013e6110e2565b606091505b50509050806111335760405162461bcd60e51b815260206004820152601a60248201527f4661696c656420746f2073656e64206d696e74696e672066656500000000000060448201526064016107c9565b896001600160a01b0316827fc5e22871a8f89fc5c1510370871b44cd8ed47dc501f1af1d05e93ab1885ad05f8a8c89604051611171939291906129af565b60405180910390a3509150506111876001600a55565b9695505050505050565b60006001600160a01b0382166111fb5760405162461bcd60e51b815260206004820152602960248201527f4552433732313a2061646472657373207a65726f206973206e6f7420612076616044820152683634b21037bbb732b960b91b60648201526084016107c9565b506001600160a01b031660009081526005602052604090205490565b61121f611aeb565b6112296000611b45565b565b600080611237836118ea565b6112535760405162461bcd60e51b81526004016107c990612847565b50506000908152600d6020908152604080832054600f909252909120549091565b6060600380546106ab90612771565b61128e338383611b97565b5050565b61129a611aeb565b6001600160a01b0381166112e95760405162461bcd60e51b8152602060048201526016602482015275496e76616c69642077616c6c6574206164647265737360501b60448201526064016107c9565b601080546001600160a01b0319166001600160a01b0392909216919091179055565b611313611aeb565b6103e881111561135d5760405162461bcd60e51b81526020600482015260156024820152744665652063616e6e6f74206578636565642031302560581b60448201526064016107c9565b601155565b600c6020526000908152604090208054819061137d90612771565b80601f01602080910402602001604051908101604052809291908181526020018280546113a990612771565b80156113f65780601f106113cb576101008083540402835291602001916113f6565b820191906000526020600020905b8154815290600101906020018083116113d957829003601f168201915b50505050509080600101805461140b90612771565b80601f016020809104026020016040519081016040528092919081815260200182805461143790612771565b80156114845780601f1061145957610100808354040283529160200191611484565b820191906000526020600020905b81548152906001019060200180831161146757829003601f168201915b50505050509080600201805461149990612771565b80601f01602080910402602001604051908101604052809291908181526020018280546114c590612771565b80156115125780601f106114e757610100808354040283529160200191611512565b820191906000526020600020905b8154815290600101906020018083116114f557829003601f168201915b50505050600383015460049093015491929160ff16905085565b61153633836116ae565b6115525760405162461bcd60e51b81526004016107c9906127ab565b61155e84848484611c65565b50505050565b606061069682611c98565b611577611aeb565b6001600160a01b0381166115dc5760405162461bcd60e51b815260206004820152602660248201527f4f776e61626c653a206e6577206f776e657220697320746865207a65726f206160448201526564647265737360d01b60648201526084016107c9565b610ba581611b45565b600061069682611da0565b6115f9816118ea565b610ba55760405162461bcd60e51b8152602060048201526018602482015277115490cdcc8c4e881a5b9d985b1a59081d1bdad95b88125160421b60448201526064016107c9565b600081815260066020526040902080546001600160a01b0319166001600160a01b038416908117909155819061167582610e0a565b6001600160a01b03167f8c5be1e5ebec7d5bd14f71427d1e84f3dd0314c0f7b2291e5b200ac8c7c3b92560405160405180910390a45050565b6000806116ba83610e0a565b9050806001600160a01b0316846001600160a01b0316148061170157506001600160a01b0380821660009081526007602090815260408083209388168352929052205460ff165b806117255750836001600160a01b031661171a8461072e565b6001600160a01b0316145b949350505050565b826001600160a01b031661174082610e0a565b6001600160a01b0316146117665760405162461bcd60e51b81526004016107c9906129ee565b6001600160a01b0382166117c85760405162461bcd60e51b8152602060048201526024808201527f4552433732313a207472616e7366657220746f20746865207a65726f206164646044820152637265737360e01b60648201526084016107c9565b826001600160a01b03166117db82610e0a565b6001600160a01b0316146118015760405162461bcd60e51b81526004016107c9906129ee565b600081815260066020908152604080832080546001600160a01b03199081169091556001600160a01b0387811680865260058552838620805460001901905590871680865283862080546001019055868652600490945282852080549092168417909155905184937fddf252ad1be2c89b69c2b068fc378daa952ba7f163c4a11628f55a4df523b3ef91a4505050565b6002600a54036118e35760405162461bcd60e51b815260206004820152601f60248201527f5265656e7472616e637947756172643a207265656e7472616e742063616c6c0060448201526064016107c9565b6002600a55565b6000908152600460205260409020546001600160a01b0316151590565b61128e828260405180602001604052806000815250611dc5565b61192a826118ea565b61198d5760405162461bcd60e51b815260206004820152602e60248201527f45524337323155524953746f726167653a2055524920736574206f66206e6f6e60448201526d32bc34b9ba32b73a103a37b5b2b760911b60648201526084016107c9565b60008281526008602052604090206119a582826128ef565b506040518281527ff8e1a15aba9398e019f0b49df1a4fde98ee17ae345cb5f6b5e2c27f5033e8ce79060200160405180910390a15050565b6127106001600160601b0382161115611a4b5760405162461bcd60e51b815260206004820152602a60248201527f455243323938313a20726f79616c7479206665652077696c6c206578636565646044820152692073616c65507269636560b01b60648201526084016107c9565b6001600160a01b038216611aa15760405162461bcd60e51b815260206004820152601b60248201527f455243323938313a20496e76616c696420706172616d6574657273000000000060448201526064016107c9565b6040805180820182526001600160a01b0393841681526001600160601b0392831660208083019182526000968752600190529190942093519051909116600160a01b029116179055565b6009546001600160a01b031633146112295760405162461bcd60e51b815260206004820181905260248201527f4f776e61626c653a2063616c6c6572206973206e6f7420746865206f776e657260448201526064016107c9565b600980546001600160a01b038381166001600160a01b0319831681179093556040519116919082907f8be0079c531659141344cd1fd0a4f28419497f9722a3daafe3b4186f6b6457e090600090a35050565b816001600160a01b0316836001600160a01b031603611bf85760405162461bcd60e51b815260206004820152601960248201527f4552433732313a20617070726f766520746f2063616c6c65720000000000000060448201526064016107c9565b6001600160a01b03838116600081815260076020908152604080832094871680845294825291829020805460ff191686151590811790915591519182527f17307eab39ab6107e8899845ad3d59bd9653f200f220920489ca2b5937696c31910160405180910390a3505050565b611c7084848461172d565b611c7c84848484611df8565b61155e5760405162461bcd60e51b81526004016107c990612a33565b6060611ca3826115f0565b60008281526008602052604081208054611cbc90612771565b80601f0160208091040260200160405190810160405280929190818152602001828054611ce890612771565b8015611d355780601f10611d0a57610100808354040283529160200191611d35565b820191906000526020600020905b815481529060010190602001808311611d1857829003601f168201915b505050505090506000611d5360408051602081019091526000815290565b90508051600003611d65575092915050565b815115611d97578082604051602001611d7f929190612a85565b60405160208183030381529060405292505050919050565b61172584611ef9565b60006001600160e01b03198216632483248360e11b1480610696575061069682611f6d565b611dcf8383611fad565b611ddc6000848484611df8565b61086a5760405162461bcd60e51b81526004016107c990612a33565b60006001600160a01b0384163b15611eee57604051630a85bd0160e11b81526001600160a01b0385169063150b7a0290611e3c903390899088908890600401612ab4565b6020604051808303816000875af1925050508015611e77575060408051601f3d908101601f19168201909252611e7491810190612ae7565b60015b611ed4573d808015611ea5576040519150601f19603f3d011682016040523d82523d6000602084013e611eaa565b606091505b508051600003611ecc5760405162461bcd60e51b81526004016107c990612a33565b805181602001fd5b6001600160e01b031916630a85bd0160e11b149050611725565b506001949350505050565b6060611f04826115f0565b6000611f1b60408051602081019091526000815290565b90506000815111611f3b5760405180602001604052806000815250611f66565b80611f458461211a565b604051602001611f56929190612a85565b6040516020818303038152906040525b9392505050565b60006001600160e01b031982166380ac58cd60e01b1480611f9e57506001600160e01b03198216635b5e139f60e01b145b806106965750610696826121ad565b6001600160a01b0382166120035760405162461bcd60e51b815260206004820181905260248201527f4552433732313a206d696e7420746f20746865207a65726f206164647265737360448201526064016107c9565b61200c816118ea565b156120595760405162461bcd60e51b815260206004820152601c60248201527f4552433732313a20746f6b656e20616c7265616479206d696e7465640000000060448201526064016107c9565b612062816118ea565b156120af5760405162461bcd60e51b815260206004820152601c60248201527f4552433732313a20746f6b656e20616c7265616479206d696e7465640000000060448201526064016107c9565b6001600160a01b038216600081815260056020908152604080832080546001019055848352600490915280822080546001600160a01b0319168417905551839291907fddf252ad1be2c89b69c2b068fc378daa952ba7f163c4a11628f55a4df523b3ef908290a45050565b60606000612127836121e2565b600101905060008167ffffffffffffffff81111561214757612147612488565b6040519080825280601f01601f191660200182016040528015612171576020820181803683370190505b5090508181016020015b600019016f181899199a1a9b1b9c1cb0b131b232b360811b600a86061a8153600a850494508461217b57509392505050565b60006001600160e01b0319821663152a902d60e11b148061069657506301ffc9a760e01b6001600160e01b0319831614610696565b60008072184f03e93ff9f4daa797ed6e38ed64bf6a1f0160401b83106122215772184f03e93ff9f4daa797ed6e38ed64bf6a1f0160401b830492506040015b6d04ee2d6d415b85acef8100000000831061224d576d04ee2d6d415b85acef8100000000830492506020015b662386f26fc10000831061226b57662386f26fc10000830492506010015b6305f5e1008310612283576305f5e100830492506008015b612710831061229757612710830492506004015b606483106122a9576064830492506002015b600a83106106965760010192915050565b6001600160e01b031981168114610ba557600080fd5b6000602082840312156122e257600080fd5b8135611f66816122ba565b60005b838110156123085781810151838201526020016122f0565b50506000910152565b600081518084526123298160208601602086016122ed565b601f01601f19169290920160200192915050565b602081526000611f666020830184612311565b60006020828403121561236257600080fd5b5035919050565b80356001600160a01b038116811461238057600080fd5b919050565b6000806040838503121561239857600080fd5b6123a183612369565b946020939093013593505050565b6000806000606084860312156123c457600080fd5b6123cd84612369565b92506123db60208501612369565b9150604084013590509250925092565b600080604083850312156123fe57600080fd5b50508035926020909101359150565b602081526000825160a0602084015261242960c0840182612311565b90506020840151601f19808584030160408601526124478383612311565b92506040860151915080858403016060860152506124658282612311565b915050606084015160808401526080840151151560a08401528091505092915050565b634e487b7160e01b600052604160045260246000fd5b600067ffffffffffffffff808411156124b9576124b9612488565b604051601f8501601f19908116603f011681019082821181831017156124e1576124e1612488565b816040528093508581528686860111156124fa57600080fd5b858560208301376000602087830101525050509392505050565b600082601f83011261252557600080fd5b611f668383356020850161249e565b80356001600160601b038116811461238057600080fd5b60008060008060008060c0878903121561256457600080fd5b61256d87612369565b9550602087013567ffffffffffffffff8082111561258a57600080fd5b6125968a838b01612514565b965060408901359150808211156125ac57600080fd5b6125b88a838b01612514565b955060608901359150808211156125ce57600080fd5b6125da8a838b01612514565b945060808901359150808211156125f057600080fd5b506125fd89828a01612514565b92505061260c60a08801612534565b90509295509295509295565b60006020828403121561262a57600080fd5b611f6682612369565b6000806040838503121561264657600080fd5b61264f83612369565b91506020830135801515811461266457600080fd5b809150509250929050565b60a08152600061268260a0830188612311565b82810360208401526126948188612311565b905082810360408401526126a88187612311565b606084019590955250509015156080909101529392505050565b600080600080608085870312156126d857600080fd5b6126e185612369565b93506126ef60208601612369565b925060408501359150606085013567ffffffffffffffff81111561271257600080fd5b8501601f8101871361272357600080fd5b6127328782356020840161249e565b91505092959194509250565b6000806040838503121561275157600080fd5b61275a83612369565b915061276860208401612369565b90509250929050565b600181811c9082168061278557607f821691505b6020821081036127a557634e487b7160e01b600052602260045260246000fd5b50919050565b6020808252602d908201527f4552433732313a2063616c6c6572206973206e6f7420746f6b656e206f776e6560408201526c1c881bdc88185c1c1c9bdd9959609a1b606082015260800190565b634e487b7160e01b600052601160045260246000fd5b8082028115828204841417610696576106966127f8565b60008261284257634e487b7160e01b600052601260045260246000fd5b500490565b602080825260149082015273151bdad95b88191bd95cc81b9bdd08195e1a5cdd60621b604082015260600190565b600060018201612887576128876127f8565b5060010190565b80820180821115610696576106966127f8565b601f82111561086a57600081815260208120601f850160051c810160208610156128c85750805b601f850160051c820191505b818110156128e7578281556001016128d4565b505050505050565b815167ffffffffffffffff81111561290957612909612488565b61291d816129178454612771565b846128a1565b602080601f831160018114612952576000841561293a5750858301515b600019600386901b1c1916600185901b1785556128e7565b600085815260208120601f198616915b8281101561298157888601518255948401946001909101908401612962565b508582101561299f5787850151600019600388901b60f8161c191681555b5050505050600190811b01905550565b6060815260006129c26060830186612311565b82810360208401526129d48186612311565b9150506001600160601b0383166040830152949350505050565b60208082526025908201527f4552433732313a207472616e736665722066726f6d20696e636f72726563742060408201526437bbb732b960d91b606082015260800190565b60208082526032908201527f4552433732313a207472616e7366657220746f206e6f6e20455243373231526560408201527131b2b4bb32b91034b6b83632b6b2b73a32b960711b606082015260800190565b60008351612a978184602088016122ed565b835190830190612aab8183602088016122ed565b01949350505050565b6001600160a01b038581168252841660208201526040810183905260806060820181905260009061118790830184612311565b600060208284031215612af957600080fd5b8151611f66816122ba56fea2646970667358221220ca3c24b8e5df1b9a05a6f7ec7905c3eb3edd11dd78dc9ea2780f7ab10dad52a864736f6c63430008130033",
  "linkReferences": {},
  "deployedLinkReferences": {}
}